1234567FRUFRU         LULU           10ANALYST          111223333                        10181977  081590S1111122222333334444455555
1436588WALK           SUE            08PROGRAMMER       134528903                        11232000  063903S5555544444333332222211111
4589300FRAKER         RICHARD        01PLANNER          254868483                        06052030  064578S1234512345123451234512345
1234567URFURF         PETE           09DISASTER RECOVERY343434444                        03231977  679801S1111111111111111111111111
3849838WASHINGTON     SUSANNAH       04SYSTEM ANALYST   483938883                        12141995  088740S2222222222222222222222222
9865878MOOR           JOHNIE         07DRIVER           247958499                        03231996  001579H3333333333333333333333333
0686766ANTROPOLUS     JUANITA        03WINDOW WASHER    169584990                        04121930  001721H4444444444444444444444444
7494883MUNCHMORE      IGOR           02VALET            038648844                        07141985  001163H5555555555555555555555555
0557733ANT            JUAN           05DISH WASHER      223344556                        07121990  001095H0000000000000000000000000
5585855PANTHER        PAULA          06MANAGER          999997777                        09231986  052692S1111111111111111111111111
